:020000040800F2
:10000000F0060020890100081B110008710E00088D
:10001000191100088F0200083F12000800000000BC
:100020000000000000000000000000001F11000898
:1000300091020008000000001D11000821110008B5
:10004000A3010008A3010008A3010008A301000800
:10005000A3010008A3010008930200089902000808
:100060009F020008A5020008A3010008A3010008E0
:10007000A3010008A3010008A3010008A3010008D0
:10008000A3010008A3010008A3010008A3010008C0
:10009000A3010008A3010008A3010008AB020008A7
:1000A000A3010008A3010008A3010008A3010008A0
:1000B000A3010008A301000800000000A30100083C
:1000C000A30100080000000000000000A3010008D8
:1000D00000000000A3010008A301000800000000C8
:1000E000A3010008A3010008A301000800F002F822
:1000F00000F03AF80AA090E8000C82448344AAF188
:100100000107DA4501D100F02FF8AFF2090EBAE885
:100110000F0013F0010F18BFFB1A43F0010318473B
:100120002815000048150000103A24BF78C878C18F
:10013000FAD8520724BF30C830C144BF04680C60ED
:10014000704700000023002400250026103A28BF35
:1001500078C1FBD8520728BF30C148BF0B60704739
:100160001FB51FBD10B510BD00F058F81146FFF7C0
:10017000F7FF01F075F800F076F803B4FFF7F2FF2F
:1001800003BC00F07DF8000009488047094800479B
:10019000FEE7FEE7FEE7FEE7FEE7FEE7FEE7FEE737
:1001A000FEE7FEE704480549054A064B7047000094
:1001B00075110008ED000008F0000020F006002096
:1001C000F0020020F00200204FF0000200B51346BC
:1001D00094469646203922BFA0E80C50A0E80C5067
:1001E000B1F12001BFF4F7AF090728BFA0E80C5018
:1001F00048BF0CC05DF804EB890028BF40F8042B11
:1002000008BF704748BF20F8022B11F0804F18BF7D
:1002100000F8012B7047704770477047754600F033
:100220002BF8AE4605006946534620F00700854688
:1002300018B020B5FFF7B6FFBDE820404FF000062C
:100240004FF000074FF000084FF0000B21F00701BE
:10025000AC46ACE8C009ACE8C009ACE8C009ACE801
:10026000C0098D46704710B50446AFF300802046A4
:10027000BDE81040FFF781BF004870478C000020A8
:1002800001491820ABBEFEE7260002007047FEE7DA
:100290007047012000F016B9022000F013B90420C5
:1002A00000F010B9082000F00DB94FF4807000F094
:1002B00009B9000070B5044600F002FA0546601C5A
:1002C00002D004480078044400F0FAF9401BA04230
:1002D000FAD370BD340000202DE9F041774D4FF482
:1002E0008071284600F0DAF9754C012630B969159D
:1002F000284600F0D3F901280BD0266301212846B7
:1003000000F0CCF9002701280ED0A06A01280BD0FC
:100310001DE04FF48061284600F0C0F9012801D0AB
:10032000A662EBE7E662E9E70A20FFF7C3FF0121D7
:10033000284600F0B3F9012802D0A06A012806D1AE
:10034000E66100F0BDF92060A06A012805D0012116
:10035000284600F0A3F918B114E0A762BDE8F081C7
:10036000E06901280ED10A20FFF7A4FF01212846E9
:1003700000F094F930B9E761E66000F0A1F9216876
:10038000401AA0600221284600F088F9012802D016
:10039000E06A012813D10A20FFF78CFF02212846CA
:1003A00000F07CF9012802D0E06A012807D1022080
:1003B000E06100F085F92060E06A012805D00221A3
:1003C000284600F06BF910B113E0E762C6E7E06978
:1003D00002280ED10A20FFF76DFF0221284600F007
:1003E0005DF930B9E761266100F06AF92168401AC9
:1003F000A0600421284600F051F9012802D0206BAA
:10040000012813D10A20FFF755FF0421284600F0E8
:1004100045F9012802D0206B012807D10320E061B3
:1004200000F04EF92060206B012805D004212846F9
:1004300000F034F910B113E027638FE7E069032877
:100440000ED10A20FFF736FF0421284600F026F9D6
:1004500030B9E761666100F033F92168401AA060A5
:100460000821284600F01AF901280DD10A20FFF7CB
:1004700021FF0821284600F011F9012804D10420A9
:10048000E06100F01DF920600821284600F006F91F
:1004900000289BD1E069042898D10A20FFF70AFFC1
:1004A0000821284600F0FAF800288FD1C4E9066731
:1004B00000F006F92168401AA0604FE700080140EB
:1004C00000000020044910B50A68024202D008600A
:1004D000FFF702FF10BD0000140401402DE9F84FA2
:1004E000DFF89C910024A9F1040B23460F2709F1A2
:1004F000040AABF1040EBBE00125A5402A40AA4244
:1005000076D1DFF880C14E68A6EB0C0866452BD08B
:100510000DDC032E34D005DC36B3012E19D0022EAB
:100520002FD11BE0112E16D0122E2AD119E0B8F5CA
:10053000881F19D006DCB8F5803F15D0B8F5801FAC
:100540001FD111E0B8F5001F0ED0B8F5041F18D167
:100550000AE0CB6815E0CB681B1D12E0CB680833BE
:100560000FE0CB680C330CE08B682BB1012B4FF004
:10057000080303D0456104E0042302E0056100E0C4
:100580000023FF2A01D8064601E000F104064FEAE5
:10059000840501D9A5F12005D6F8008007FA05FCED
:1005A00028EA0C0803FA05F548EA0508C6F80080B1
:1005B0004D68ED005BD5344DAE6946F00106AE6185
:1005C000AD6924F0030605F0010500952F4D06EBFB
:1005D000050CDCF80850A607360F07FA06F825EADE
:1005E0000805DFF8AC80404503D14FF0000810E06B
:1005F0003DE0DFF8A080404502D14FF0010808E05F
:10060000DFF89480404502D14FF0020801E04FF03E
:10061000030808FA06F848EA0508CCF808804D688F
:10062000D9F80060ED024D4601D5164300E096432F
:100630002E604D68DAF80060AD02554601D51643CC
:1006400000E096432E604D68DBF80060AD035D4628
:1006500001D5164300E096432E604D68DEF8006039
:10066000ED03754601D5164300E096432E60641CE9
:100670000A6832FA04F57FF43FAFBDE8F88F000056
:100680000804014000001110001002400000014069
:1006900000080140000C0140001001408068084043
:1006A00000D001207047C26821EA02030A4043EAF1
:1006B0000241016170470AB1016170470904FBE71B
:1006C00001488068704700003400002002488168BB
:1006D000027811448160704734000020074810B54B
:1006E000016841F010010160032000F06FF8012063
:1006F00000F006F800F024F8002010BD00200240B1
:1007000070B50D4D04464FF47A712878B1FBF0F0C6
:100710000A490968B1FBF0F000F0B6FA48B9102CAC
:1007200007D200222146501E00F030F800206C60F5
:1007300070BD012070BD000034000020400000208A
:100740000A4882B0816941F001018161816901F04B
:1007500001010091C16941F08051C161C06900F09F
:1007600080500090052002B000F030B80010024028
:10077000002809DB00F01F020121914040098000A0
:1007800000F1E020C0F8001170470000F0B40E4BFB
:100790001B680C46C3F30223C3F10705042D00D9DF
:1007A0000425191D072901D2002300E0DB1E0126C4
:1007B00006FA05F1491E214099409E40761E1640DA
:1007C0003143F0BC00F03CBD0CED00E0064900F008
:1007D000070208684FF6FF03184040EA0220034A68
:1007E00010430860704700000CED00E00000FA05BF
:1007F0002DE9F0470F46050061D0434E306800F008
:100800000700B84209D2306820F007003843306052
:10081000306800F00700B84251D128683B4C81078E
:1008200012D5400703D5606840F4E0606060287826
:10083000000703D5606840F4605060606068A96894
:1008400020F0F000084360602878C00728D068686E
:10085000012810D02168022810D0890700292EDA3B
:10086000616821F0030101436160FFF729FF8046C1
:1008700041F288390DE021688903EFE78901EDE74E
:10088000FFF71EFFA0EB0801494502D90320BDE890
:10089000F0876068696800F00C00B0EB810FEFD161
:1008A000306800F00700B8420BD9306820F007002C
:1008B00038433060306800F00700B84201D00120B2
:1008C000E5E72878400705D56068E96820F4E0602E
:1008D000084360602878000706D56068296920F41D
:1008E000605040EAC100606000F018F86168084A92
:1008F000C1F30311515CC84006490860064800680E
:10090000FFF7FEFE0020C2E7002002400010024078
:100910003616000840000020380000200E4A5168BA
:100920000E4801F00C03042B11D0082B0FD10C48FA
:10093000C1F38343C903C05C0AD55168084AC1F3B7
:100940004041921E515C054A5043B0FBF1F07047A4
:1009500004494843704700000010024000127A002A
:100960002616000800093D002DE9F84F040070D05C
:100970002078C04DC00749D06868C0F381000128C5
:1009800007D06868C0F38100022809D16868C003F5
:1009900006D52868800339D560680028E7D035E09F
:1009A0006068B0F5803F0BD010B1B0F5A02F11D02A
:1009B000286820F480302860286820F4802002E035
:1009C000286840F480302860606890B1FFF778FEB6
:1009D00006460AE0286840F480202860F0E700BF5F
:1009E000FFF76EFE801B642873D828688003F7D554
:1009F0000CE0FFF765FE064605E000BFFFF760FE6E
:100A0000801B6428F0D828688003F7D420789A4E99
:100A100080074FF001094FF0000839D5686810F0E1
:100A20000C0F07D06868C0F38100022809D16868FC
:100A3000C00306D42868800714D52069012808D18E
:100A400010E02069B0B1C6F80090FFF739FE074604
:100A500005E00AE1FFF734FEC01B0228C4D828686D
:100A60008007F7D52868616920F0F80040EAC100E6
:100A700028600DE0C6F80080FFF722FE074604E07C
:100A8000FFF71EFEC01B022823D828688007F7D472
:100A9000207800072CD57948A169D9B1C0F8009019
:100AA000FFF70EFE074604E0FFF70AFEC01B022810
:100AB0000FD8686A8007F7D571484FF4FA5100687B
:100AC000B0FBF1F0009000BF0098411E0091FAD2F7
:100AD0000EE080E0C0F80080FFF7F2FD074604E07A
:100AE000FFF7EEFDC01B022875D8686A8007F7D4AF
:100AF0002078400760D5E8690027C00008D4E8697D
:100B000040F08050E861E869012700F080500090D3
:100B10005C480168C90513D40168834641F48071BB
:100B20000160FFF7CDFD824606E000BFFFF7C8FD7C
:100B3000A0EB0A0064284ED8DBF80000C005F5D50C
:100B4000E06801280AD008B1052813D0286A20F0EF
:100B500001002862286A20F0040002E0286A40F0C0
:100B600001002862E06841F2883B98B1FFF7A8FDD8
:100B700082460BE0286A40F004002862EEE700BFDE
:100B8000FFF79EFDA0EB0A0159455AD8286A800755
:100B9000F6D50CE0FFF794FD824605E0FFF790FDE7
:100BA000A0EB0A0159454CD8286A8007F6D41FB13A
:100BB000E86920F08050E861E06988B36968C1F3B2
:100BC0008101022944D00228C6F8608004D0FFF7D2
:100BD00077FD044638E034E0FFF772FD074604E095
:100BE000FFF76EFDC01B02282BD828688001F7D4C0
:100BF000206AB0F5803F05D16868A16820F4003014
:100C000008436860D4E908010843696821F4741155
:100C100008436860C6F86090FFF752FD044606E09E
:100C200025E000BFFFF74CFD001B022809D828680B
:100C30008001F7D51BE000BFFFF742FD001B022833
:100C400002D90320BDE8F88F28688001F4D40EE0B3
:100C50000128F7D06868226A00F48031914204D1FB
:100C6000616A00F47010884201D00120EAE7002098
:100C7000E8E70000001002400000424280044242C7
:100C8000400000200070004010B5401EB0F1807F91
:100C900001D3012010BD4FF0E02460610F216017E7
:100CA00000F0CEFA0020A06107202061002010BDD6
:100CB00070B590F83C20012A23D0012480F83C40F4
:100CC000022280F83D2003685A689D6822F0700671
:100CD0000A6832435A600C4B02689A4205D0B2F15E
:100CE000804F02D0094B9A4204D1496825F0800315
:100CF0001943916080F83D40002180F83C1008467F
:100D000070BD022070BD0000002C014000040040B6
:100D100010B5040003D094F83D0010B107E00120A5
:100D200010BD002084F83C00204600F01FF802208F
:100D300084F83D00211D206800F01EFA012084F88F
:100D4000460084F83E0084F83F0084F8400084F8B0
:100D5000410084F8420084F8430084F8440084F899
:100D6000450084F83D00002010BD000008B5006873
:100D70000649884208D10648C16941F00201C161B3
:100D8000C06900F00200009008BD000000040040AF
:100D90000010024070B5044690F83C000025012880
:100DA00017D0012684F83C60022084F83D002068BA
:100DB000826822F0770222F47F428260086850281D
:100DC00038D00DDC20284FD005DC90B3102811D18D
:100DD0004AE0022070BD302846D040280AD13BE0CE
:100DE00060282FD070280DD0B0F5805F03D0B0F50B
:100DF000005F12D0012584F83D60002084F83C009B
:100E0000284670BDCB68D1E90121206800F0E2F9E5
:100E10002068816841F0770109E0CB68D1E90121C0
:100E2000206800F0D7F92068816841F48041816032
:100E3000E1E719E0CA684968206800F0DDF950214F
:100E4000206806E0CA684968206800F0E6F9602179
:100E5000206800F0C9F9CEE7CA684968206800F048
:100E6000CBF940212068F4E7226801461046F0E7FC
:100E7000FEE70000224810B5D0E908128A423DD0B2
:100E8000204C4162082939D2DFE801F0040A10162B
:100E90001C22282E00F038F801224FF4EE4128E001
:100EA00000F032F801224FF4A05122E000F02CF8BB
:100EB00001224FF433411CE000F026F801224FF4E8
:100EC000364116E000F020F801224FF4544110E0C2
:100ED00000F01AF801224FF466410AE000F014F81D
:100EE00001224FF4674104E000F00EF801224FF4B4
:100EF00050512046BDE81040FFF7DDBB10BD00009B
:100F000000000020000C014010B5174C00224FF4E7
:100F100080712046FFF7CFFB002261152046FFF7C6
:100F2000CAFB002221152046FFF7C5FB0022E11471
:100F30002046FFF7C0FB0022A1142046FFF7BBFBB1
:100F4000002261142046FFF7B6FB00224FF48041D7
:100F50002046FFF7B0FB2046BDE8104000224FF4CA
:100F60000041FFF7A8BB0000000C01402DE9F0474D
:100F700086B000244A480094019402940394816945
:100F800041F010018161816901F0100104918169D2
:100F900041F004018161816901F0040104918169DA
:100FA00041F00801816180693E4F00F008004FF474
:100FB00000550490002229463846FFF77CFBDFF8F5
:100FC000E8A00022F0215046FFF775FBDFF8DC9027
:100FD0004FF6FF78002241464846FFF76CFB00952C
:100FE000022601250396CDE9015469463846FFF7EC
:100FF00075FA2F4F0F20CDE900076946029650463B
:10100000FFF76CFAF020CDE90005CDE9024669460C
:101010005046FFF763FACDF800800396CDE90154FE
:1010200069464846FFF75AFA2802CDE900076946A3
:1010300002955046FFF752FA4FF4C0608DE8310038
:1010400069465046FFF74AFA002203210620FFF7BF
:101050009DFB0620FFF78CFB002203210720FFF7F2
:1010600095FB0720FFF784FB002203210820FFF7F0
:101070008DFB0820FFF77CFB002203210920FFF7EE
:1010800085FB0920FFF774FB002203211720FFF7DF
:101090007DFB1720FFF76CFB06B0BDE8F087000072
:1010A000001002400010014000080140000C014007
:1010B0000000311010B586B0002416480094019449
:1010C00002940394049412490594C0E900144FF665
:1010D000FF71C0E9024104618461FFF719FE08B1A4
:1010E00072B6FEE74FF48050009069460948FFF75A
:1010F00051FE08B172B6FEE7049404A905480594B0
:10110000FFF7D6FD002801D072B6FEE706B010BD8D
:101110000004004044000020FEE7FEE770477047EF
:10112000FFF7D4BA10B590B028216846FFF74CF805
:1011300014210AA8FFF748F802200090012004902B
:1011400010200024059007946846FFF70DFC08B1B5
:1011500072B6FEE70F20CDE90A040C940D9400212D
:101160000AA80E94FFF744FB002801D072B6FEE7F0
:1011700010B010BD7047000070B50268134B144CDE
:101180004FF08046984203D0B04201D0A04203D134
:1011900022F070054A682A43984203D0B04201D039
:1011A000A04203D122F44074CA6822434C6922F061
:1011B0008002224302608A68C2620A6882629842A0
:1011C00001D1096901630121416170BD002C014019
:1011D0000004004010B5846842EA032224F47F44EE
:1011E0000A432243826010BD826822F070020A43E3
:1011F00042F007018160704710B5036A046A24F069
:1012000001040462846924F0F00444EA021423F027
:101210000A020A438461026210BD10B5036A046ABF
:1012200024F010040462846923F0A00324F47044C1
:1012300044EA023243EA01118261016210BDFEE715
:101240000907090E002804DB00F1E02080F80014F3
:10125000704700F00F0000F1E02080F8141D704787
:10126000FFF73CFAFFF75EFFFFF780FEFFF722FF74
:101270004FF4FA763046FFF71DF81E2000F054F9BF
:10128000DFF810B14FF4005A0122544651465D4632
:101290005846FFF710FA3046FFF70CF800222146B7
:1012A0002846FFF708FA77004FF4FA6800253A4C11
:1012B000DFF8E890FFF7DEFDE06801281ED1E56069
:1012C000A06890FBF7F1616040450EDB002608E066
:1012D0000A2000F0C7F8206A072801DA401C2062C3
:1012E000761C60688642F3DB07E00A2000F0BAF85B
:1012F000206A072801DA401C206265602069012805
:101300002DD12561A06890FBF7F1616040450EDBAF
:10131000002608E00A2000F043F8206A002801DDDA
:10132000401E2062761C60688642F3DB07E00A20DC
:1013300000F036F8206A002801DD401E2062206A95
:1013400060B920214E464846FFF7ADF940213046AE
:10135000FFF7A9F951465846FFF7A5F9656060699E
:1013600001280DD120214E4648466561FFF79BF9C3
:1013700040213046FFF797F951465846FFF793F959
:10138000A069012896D180214846A561FFF78BF915
:1013900090E700000010014000000020000C014018
:1013A00070B52F4D0646012220212846FFF783F90C
:1013B0000A20FEF77FFF0A20FEF77CFF0022802133
:1013C0002846FFF778F90A20FEF774FF0A20FEF797
:1013D00071FF002240212846FFF76DF90A20FEF731
:1013E00069FF0A20FEF766FF00240DE0FFF763F9AE
:1013F0000A20FEF75FFF002220212846FFF75BF955
:101400000A20FEF757FF641CB4424FF001024FF070
:1014100020012846EADBFFF74EF90A20FEF74AFFD3
:101420000A20FEF747FF012280212846FFF743F9F3
:101430000A20FEF73FFF0A20FEF73CFF0022402172
:101440002846FFF738F90A20FEF734FF0A20FEF796
:1014500031FF2846BDE8704001222021FFF72BB95B
:101460000008014070B52F4D064601222021284674
:10147000FFF721F90A20FEF71DFF0A20FEF71AFFE9
:10148000002280212846FFF716F90A20FEF712FFF6
:101490000A20FEF70FFF012240212846FFF70BF933
:1014A0000A20FEF707FF0A20FEF704FF00240DE0E4
:1014B000FFF701F90A20FEF7FDFE00222021284651
:1014C000FFF7F9F80A20FEF7F5FE641CB4424FF06E
:1014D00001024FF020012846EADBFFF7ECF80A2072
:1014E000FEF7E8FE0A20FEF7E5FE012280212846ED
:1014F000FFF7E1F80A20FEF7DDFE0A20FEF7DAFE2C
:10150000012240212846FFF7D6F80A20FEF7D2FE36
:101510000A20FEF7CFFE2846BDE8704001222021B8
:10152000FFF7C9B80008014070B53D4C06460122DE
:1015300020212046FFF7BFF80A20FEF7BBFE0A2055
:10154000FEF7B8FE002280212046FFF7B4F80A20FB
:10155000FEF7B0FE0A20FEF7ADFE00224021204635
:10156000FFF7A9F80A20FEF7A5FE0A20FEF7A2FE63
:101570000025012220212046FFF79DF80A20FEF7D2
:1015800099FE002220212046FFF795F80A20FEF759
:1015900091FE6D1C642DECDB012240212046FFF7FB
:1015A0008AF80A20FEF786FE00250DE0FFF783F893
:1015B0000A20FEF77FFE002220212046FFF77BF85D
:1015C0000A20FEF777FE6D1CB5424FF001024FF086
:1015D00020012046EADBFFF76EF80A20FEF76AFEDC
:1015E0000A20FEF767FE012280212046FFF763F8FC
:1015F0000A20FEF75FFE0A20FEF75CFE0022402173
:101600002046FFF758F80A20FEF754FE0A20FEF79E
:1016100051FE2046BDE8704001222021FFF74BB863
:1016200000080140010202030405060708090A0B2D
:101630000C0D0E0F10100000000000000000010251
:1016400003040607080900006816000800000020CF
:101650004400000028010008AC16000844000020E7
:10166000AC0600004401000800000000000000007B
:10167000000000000000000000000000000000006A
:101680000000000000000000030000000000000057
:101690000000000000000000000000000100000049
:0C16A00010000000000000000024F40016
:04000005080000ED02
:00000001FF
